{
  "_format": "hh-sol-artifact-1",
  "contractName": "SupplyChain",
  "sourceName": "contracts/SupplyChain.sol",
  "abi": [
    {
      "anonymous": false,
      "inputs": [
        {
          "indexed": true,
          "internalType": "uint256",
          "name": "id",
          "type": "uint256"
        },
        {
          "indexed": false,
          "internalType": "string",
          "name": "name",
          "type": "string"
        },
        {
          "indexed": false,
          "internalType": "uint256",
          "name": "timestamp",
          "type": "uint256"
        }
      ],
      "name": "ProductCreated",
      "type": "event"
    },
    {
      "anonymous": false,
      "inputs": [
        {
          "indexed": true,
          "internalType": "uint256",
          "name": "id",
          "type": "uint256"
        },
        {
          "indexed": false,
          "internalType": "enum SupplyChain.Status",
          "name": "status",
          "type": "uint8"
        },
        {
          "indexed": false,
          "internalType": "uint256",
          "name": "timestamp",
          "type": "uint256"
        }
      ],
      "name": "StatusUpdated",
      "type": "event"
    },
    {
      "inputs": [
        {
          "internalType": "string",
          "name": "name",
          "type": "string"
        },
        {
          "internalType": "string",
          "name": "origin",
          "type": "string"
        }
      ],
      "name": "createProduct",
      "outputs": [],
      "stateMutability": "nonpayable",
      "type": "function"
    },
    {
      "inputs": [
        {
          "internalType": "uint256",
          "name": "id",
          "type": "uint256"
        }
      ],
      "name": "getHistory",
      "outputs": [
        {
          "internalType": "enum SupplyChain.Status[]",
          "name": "",
          "type": "uint8[]"
        },
        {
          "internalType": "uint256[]",
          "name": "",
          "type": "uint256[]"
        }
      ],
      "stateMutability": "view",
      "type": "function"
    },
    {
      "inputs": [],
      "name": "nextId",
      "outputs": [
        {
          "internalType": "uint256",
          "name": "",
          "type": "uint256"
        }
      ],
      "stateMutability": "view",
      "type": "function"
    },
    {
      "inputs": [
        {
          "internalType": "uint256",
          "name": "",
          "type": "uint256"
        }
      ],
      "name": "products",
      "outputs": [
        {
          "internalType": "uint256",
          "name": "id",
          "type": "uint256"
        },
        {
          "internalType": "string",
          "name": "name",
          "type": "string"
        },
        {
          "internalType": "string",
          "name": "origin",
          "type": "string"
        },
        {
          "internalType": "uint256",
          "name": "createdAt",
          "type": "uint256"
        },
        {
          "internalType": "enum SupplyChain.Status",
          "name": "currentStatus",
          "type": "uint8"
        }
      ],
      "stateMutability": "view",
      "type": "function"
    },
    {
      "inputs": [
        {
          "internalType": "uint256",
          "name": "id",
          "type": "uint256"
        },
        {
          "internalType": "enum SupplyChain.Status",
          "name": "status",
          "type": "uint8"
        }
      ],
      "name": "updateStatus",
      "outputs": [],
      "stateMutability": "nonpayable",
      "type": "function"
    }
  ],
  "bytecode": "0x608060405234801561001057600080fd5b5061106c806100206000396000f3fe608060405234801561001057600080fd5b50600436106100575760003560e01c80633a1b3d311461005c57806361b8ce8c146100785780637acc0b201461009657806387592bce146100ca578063c8691b2a146100e6575b600080fd5b61007660048036038101906100719190610aab565b610117565b005b6100806102de565b60405161008d9190610d67565b60405180910390f35b6100b060048036038101906100ab9190610a82565b6102e4565b6040516100c1959493929190610d82565b60405180910390f35b6100e460048036038101906100df9190610a0d565b610437565b005b61010060048036038101906100fb9190610a82565b610618565b60405161010e929190610cb5565b60405180910390f35b600154821061015b576040517f08c379a000000000000000000000000000000000000000000000000000000000815260040161015290610d47565b60405180910390fd5b60008060008481526020019081526020016000209050818160040160006101000a81548160ff021916908360028111156101be577f4e487b7100000000000000000000000000000000000000000000000000000000600052602160045260246000fd5b021790555080600501604051806040016040528084600281111561020b577f4e487b7100000000000000000000000000000000000000000000000000000000600052602160045260246000fd5b815260200142815250908060018154018082558091505060019003906000526020600020906002020160009091909190915060008201518160000160006101000a81548160ff0219169083600281111561028e577f4e487b7100000000000000000000000000000000000000000000000000000000600052602160045260246000fd5b0217905550602082015181600101555050827f4f4cecb8d0fd736cdab2e7eb7cfce8ea973e74f91fbcdfd5d02f6707ebd6c72c83426040516102d1929190610cec565b60405180910390a2505050565b60015481565b600060205280600052604060002060009150905080600001549080600101805461030d90610ee2565b80601f016020809104026020016040519081016040528092919081815260200182805461033990610ee2565b80156103865780601f1061035b57610100808354040283529160200191610386565b820191906000526020600020905b81548152906001019060200180831161036957829003601f168201915b50505050509080600201805461039b90610ee2565b80601f01602080910402602001604051908101604052809291908181526020018280546103c790610ee2565b80156104145780601f106103e957610100808354040283529160200191610414565b820191906000526020600020905b8154815290600101906020018083116103f757829003601f168201915b5050505050908060030154908060040160009054906101000a900460ff16905085565b6000806000600154815260200190815260200160002090506001548160000181905550848482600101919061046d9291906108f6565b5082828260020191906104819291906108f6565b5042816003018190555060008160040160006101000a81548160ff021916908360028111156104d9577f4e487b7100000000000000000000000000000000000000000000000000000000600052602160045260246000fd5b021790555080600501604051806040016040528060006002811115610527577f4e487b7100000000000000000000000000000000000000000000000000000000600052602160045260246000fd5b815260200142815250908060018154018082558091505060019003906000526020600020906002020160009091909190915060008201518160000160006101000a81548160ff021916908360028111156105aa577f4e487b7100000000000000000000000000000000000000000000000000000000600052602160045260246000fd5b02179055506020820151816001015550506001547f418d4005ee80a6584eef7f51de08850f7f79c3e7b464f15ef3f236423d964b088686426040516105f193929190610d15565b60405180910390a26001600081548092919061060c90610f14565b91905055505050505050565b6060806000806000858152602001908152602001600020905060008160050180549050905060008167ffffffffffffffff81111561067f577f4e487b7100000000000000000000000000000000000000000000000000000000600052604160045260246000fd5b6040519080825280602002602001820160405280156106ad5781602001602082028036833780820191505090505b50905060008267ffffffffffffffff8111156106f2577f4e487b7100000000000000000000000000000000000000000000000000000000600052604160045260246000fd5b6040519080825280602002602001820160405280156107205781602001602082028036833780820191505090505b50905060005b838110156108e65784600501818154811061076a577f4e487b7100000000000000000000000000000000000000000000000000000000600052603260045260246000fd5b906000526020600020906002020160000160009054906101000a900460ff168382815181106107c2577f4e487b7100000000000000000000000000000000000000000000000000000000600052603260045260246000fd5b60200260200101906002811115610802577f4e487b7100000000000000000000000000000000000000000000000000000000600052602160045260246000fd5b9081600281111561083c577f4e487b7100000000000000000000000000000000000000000000000000000000600052602160045260246000fd5b8152505084600501818154811061087c577f4e487b7100000000000000000000000000000000000000000000000000000000600052603260045260246000fd5b9060005260206000209060020201600101548282815181106108c7577f4e487b7100000000000000000000000000000000000000000000000000000000600052603260045260246000fd5b60200260200101818152505080806108de90610f14565b915050610726565b5081819550955050505050915091565b82805461090290610ee2565b90600052602060002090601f016020900481019282610924576000855561096b565b82601f1061093d57803560ff191683800117855561096b565b8280016001018555821561096b579182015b8281111561096a57823582559160200191906001019061094f565b5b509050610978919061097c565b5090565b5b8082111561099557600081600090555060010161097d565b5090565b6000813590506109a88161100f565b92915050565b60008083601f8401126109c057600080fd5b8235905067ffffffffffffffff8111156109d957600080fd5b6020830191508360018202830111156109f157600080fd5b9250929050565b600081359050610a078161101f565b92915050565b60008060008060408587031215610a2357600080fd5b600085013567ffffffffffffffff811115610a3d57600080fd5b610a49878288016109ae565b9450945050602085013567ffffffffffffffff811115610a6857600080fd5b610a74878288016109ae565b925092505092959194509250565b600060208284031215610a9457600080fd5b6000610aa2848285016109f8565b91505092915050565b60008060408385031215610abe57600080fd5b6000610acc858286016109f8565b9250506020610add85828601610999565b9150509250929050565b6000610af38383610bd3565b60208301905092915050565b6000610b0b8383610c97565b60208301905092915050565b6000610b2282610e03565b610b2c8185610e4f565b9350610b3783610de3565b8060005b83811015610b68578151610b4f8882610ae7565b9750610b5a83610e24565b925050600181019050610b3b565b5085935050505092915050565b6000610b8082610e0e565b610b8a8185610e3e565b9350610b9583610df3565b8060005b83811015610bc6578151610bad8882610aff565b9750610bb883610e31565b925050600181019050610b99565b5085935050505092915050565b610bdc81610e8e565b82525050565b610beb81610e8e565b82525050565b6000610bfd8385610e60565b9350610c0a838584610ea0565b610c1383610fea565b840190509392505050565b6000610c2982610e19565b610c338185610e60565b9350610c43818560208601610eaf565b610c4c81610fea565b840191505092915050565b6000610c64601283610e60565b91507f496e76616c69642070726f6475637420696400000000000000000000000000006000830152602082019050919050565b610ca081610e84565b82525050565b610caf81610e84565b82525050565b60006040820190508181036000830152610ccf8185610b17565b90508181036020830152610ce38184610b75565b90509392505050565b6000604082019050610d016000830185610be2565b610d0e6020830184610ca6565b9392505050565b60006040820190508181036000830152610d30818587610bf1565b9050610d3f6020830184610ca6565b949350505050565b60006020820190508181036000830152610d6081610c57565b9050919050565b6000602082019050610d7c6000830184610ca6565b92915050565b600060a082019050610d976000830188610ca6565b8181036020830152610da98187610c1e565b90508181036040830152610dbd8186610c1e565b9050610dcc6060830185610ca6565b610dd96080830184610be2565b9695505050505050565b6000819050602082019050919050565b6000819050602082019050919050565b600081519050919050565b600081519050919050565b600081519050919050565b6000602082019050919050565b6000602082019050919050565b600082825260208201905092915050565b600082825260208201905092915050565b600082825260208201905092915050565b6000819050610e7f82610ffb565b919050565b6000819050919050565b6000610e9982610e71565b9050919050565b82818337600083830152505050565b60005b83811015610ecd578082015181840152602081019050610eb2565b83811115610edc576000848401525b50505050565b60006002820490506001821680610efa57607f821691505b60208210811415610f0e57610f0d610fbb565b5b50919050565b6000610f1f82610e84565b91507fffffffffffffffffffffffffffffffffffffffffffffffffffffffffffffffff821415610f5257610f51610f5d565b5b600182019050919050565b7f4e487b7100000000000000000000000000000000000000000000000000000000600052601160045260246000fd5b7f4e487b7100000000000000000000000000000000000000000000000000000000600052602160045260246000fd5b7f4e487b7100000000000000000000000000000000000000000000000000000000600052602260045260246000fd5b6000601f19601f8301169050919050565b6003811061100c5761100b610f8c565b5b50565b6003811061101c57600080fd5b50565b61102881610e84565b811461103357600080fd5b5056fea2646970667358221220877b51b5c5a2e5b79ae5eaf34ede34184e7556cacf1e14f4a944541c4aca1de964736f6c63430008000033",
  "linkReferences": {},
  "deployedLinkReferences": {}
}